:1000000010C02BC041C028C027C026C025C024C0B6
:1000100023C0C9C221C020C01FC01EC0E9C01CC06F
:100020001BC011241FBECFE5D2E0DEBFCDBF10E064
:10003000A0E6B0E0E2EFFDE002C005900D92A63927
:10004000B107D9F710E0A6E9B0E001C01D92AE3DBE
:10005000B107E1F730D0CBC6D3CF1F920F920FB6C6
:100060000F9211248F939F938091A3009091A400ED
:1000700001969093A4008093A3009F918F910F907D
:100080000FBE0F901F9018951F920F920FB60F92F0
:1000900011248F939F938091AE009091AF000196B1
:1000A0009093AF008093AE009F918F910F900FBE01
:1000B0000F901F9018951F93CF93DF9384B3877091
:1000C00084BB85B3886F85BB87B3876087BB8F9AF6
:1000D000309A8DE990E0D6D071D15DD292D289E389
:1000E00081BF8BE083BF89B7816089BF85B78A6094
:1000F00085BF8BB7806C8BBF7894C4E1D0E01BE0E8
:100100008091960090919700892B09F065C093B378
:100110009095987F80919800981709F45DC0D093CE
:100120009700C09396009093980023E030E0692FE9
:1001300070E0CB01022E02C0959587950A94E2F7F4
:1001400080FF44C0233049F48091990090E00196EB
:10015000817090708093990031C0243051F4809167
:100160009A0090E0019663E070E054D380939A0087
:1001700025C0253059F480919900819FC001112438
:1001800083569F4F60919A0041E00CC0263061F485
:1001900080919900819FC001112483569F4F6091E7
:1001A0009A004FEFB4D00AC0273041F480919900F3
:1001B000819FC001112483569F4FE5D08DE990E0C7
:1001C0006091990040919A002FD106C02F5F3F4F58
:1001D0002830310509F0ADCF8DE990E060E018D20C
:1001E00088EA90E061E014D28DE990E0C3D288CF34
:1001F0001F920F920FB60F9211242F933F934F939C
:100200005F936F937F938F939F93AF93BF93EF937E
:10021000FF9380919B0090919C00019690939C008D
:1002200080939B00885E934068F010929C0010922F
:100230009B008DE990E053D088EA90E050D08DE9A2
:1002400090E083D28091960090919700892B49F09D
:1002500080919600909197000197909397008093DA
:100260009600FF91EF91BF91AF919F918F917F91F8
:100270006F915F914F913F912F910F900FBE0F9013
:100280001F901895DC011C923CE311963C9311974A
:100290008CE291E013969C938E93129715961C9284
:1002A0001E92149717961C921E9216972FE018967E
:1002B0002C93189719961C9219971A961C921A97B4
:1002C000FD013B961B961C9231839383828315829A
:1002D0001482178216822087118612860895FC01E7
:1002E0008185882399F08285882381F48481958192
:1002F000009719F001979583848384819581892BD8
:1003000021F090818181981708F011860895FC01F1
:100310006130A1F0613018F06230A1F524C01416EC
:100320002CF481818F3510F48B5F06C047FF2AC003
:100330008181863038F1855081830895141644F404
:10034000828193812EE08031920710F44E9608C08E
:1003500047FF18C0828193818F31910598F04E97A5
:10036000938382830895141634F480858E3118F4B3
:100370008F5F8087089547FF05C08085823010F029
:10038000815080870895FC0190E08285882309F4DC
:1003900091E092879187992311F415821482089530
:1003A00095B39C7F95BB8BBBAA9A81E08A95F1F7A8
:1003B000AA9883E397E00197F1F708958FEF8ABB3E
:1003C00084B3876084BB80E098E40197F1F788E309
:1003D000E7DF80E092E10197F1F78CE0E1DF86E072
:1003E000DFDF81E0DDDF83E397E00197F1F7089538
:1003F000FC0121E09DE30CC03196A89AA9988BBB23
:10040000AA9A822F8A95F1F7AA98892F8A95F1F7EF
:100410008081882389F708958295880F880F807CD2
:10042000860F8068BDDF0895BF92CF92DF92EF9272
:10043000FF920F931F93DF93CF93CDB7DEB76097F3
:100440000FB6F894DEBF0FBECDBF7C01062FB42ED1
:1004500081E0A6DF8BE0089FC0011124E80EF91EA1
:100460008DB79EB70A970FB6F8949EBF0FBE8DBF8B
:10047000EDB7FEB731966E010894C11CD11CADB723
:10048000BEB71296DC92CE92119780E690E09383ED
:10049000828310E00F5F1F4F15830483D7018C9177
:1004A0008683178211968C9180871186DAD18DB759
:1004B0009EB70A960FB6F8949EBF0FBE8DBFC601B9
:1004C00097DF81E060E0A8DF91E0B916D9F0B916B6
:1004D00028F0A2E0BA1609F04BC02CC000D000D022
:1004E00000D0EDB7FEB73196ADB7BEB71296DC922D
:1004F000CE9211978FE690E093838283D701119675
:100500008C912BC000D000D000D0EDB7FEB7319653
:10051000ADB7BEB71296DC92CE92119780E890E00C
:1005200093838283D70112968D919C911397958323
:10053000848315C000D000D000D0EDB7FEB731964F
:10054000ADB7BEB71296DC92CE9211978AE890E0D2
:1005500093838283D70118968C918483158281D1ED
:100560008DB79EB706960FB6F8949EBF0FBE8DBF8F
:10057000CE0101963DDF60960FB6F894DEBF0FBE48
:10058000CDBFCF91DF911F910F91FF90EF90DF9042
:10059000CF90BF90089585E089B910BC88E98AB9E9
:1005A00086E880BD08951F920F920FB60F92112416
:1005B0008F939F93EF93FF939CB19A3011F09D30EE
:1005C00059F4E091B300EE2399F0F0E0EC54FF4FC2
:1005D00010821092B3000CC08091B3008F3140F4B0
:1005E000E82FF0E0EC54FF4F90838F5F8093B300CF
:1005F000FF91EF919F918F910F900FBE0F901F90E1
:10060000189581B3877E81BB82B3886182BB0895D0
:100610001F93CF93DF93DC018091D4009091D5009C
:1006200027E0803D920730F401969093D5008093A7
:10063000D40087C01092D5001092D400662311F424
:1006400023E001C024E081E090E0482F01C0440F86
:100650002A95EAF781B3842B81BB82B3942F9095BE
:10066000892382BBE9E9F3E03197F1F782B3842B68
:1006700082BB81B3982391BB81E38A95F1F780B364
:10068000842309F053C092E6892F8A95F1F780B34D
:10069000842309F44BC0892F8A95F1F750E020E0BC
:1006A00030E014E261E070E0E22F80B38423E9F7E8
:1006B00080B38423E9F3812F8A95F1F780B38423F3
:1006C00061F0C9018095909587709070EB0102C030
:1006D000CC0FDD1F8A95E2F75C2BC9018770907003
:1006E000079741F4E695E695E695F0E0E952FF4F6D
:1006F000508350E02F5F3F4F28323105A9F64091DB
:10070000DB0050E02091D8003091D700832F90E09B
:10071000820F911D2091D900820F911D2091DA0046
:10072000820F911D90704817590741F08091D600B3
:10073000833038F48F5F8093D60003C03C931092CF
:10074000D600DF91CF911F910895FC018185811121
:1007500081E0982F84898111926088B3887F892BEA
:1007600088BB0895662319F0979A389A0895979848
:1007700038980895CF93DF93EC018091DC0090913D
:10078000DD0001969093DD008093DC0084369105B6
:10079000F0F11092DD001092DC0089858823D1F001
:1007A0008E811F821E82482F50E08885282F30E0DE
:1007B000C9010296841795072CF461E070E080E08F
:1007C000D1DF08C060E070E022503040421753078C
:1007D000B4F7F3CFFE013B9681858823C1F0868173
:1007E00017821682482F50E08085282F30E0C901FB
:1007F0000296841795073CF060E070E0225030408C
:100800004217530714F461E070E081E0ABDFDF9141
:10081000CF91089597FB092E07260AD077FD04D0C3
:100820000CD006D000201AF4709561957F4F089582
:10083000F6F7909581959F4F0895AA1BBB1B51E138
:1008400007C0AA1FBB1FA617B70710F0A61BB70B40
:10085000881F991F5A95A9F780959095BC01CD01E5
:100860000895AEE0B0E0E6E3F4E098C20D891E8999
:1008700086E08C831A8309838FEF9FE79E838D83A5
:100880009E01275E3F4FCE0101966F89788DA901A9
:1008900009D02F813885020F131FF80110822E9680
:1008A000E4E098C2ABE0B0E0E7E5F4E069C23C0107
:1008B0002B015A01FC0117821682838181FD03C03E
:1008C0006FEF7FEFB9C19AE0892E1E010894211CB9
:1008D000311CF3012381F20123FD859123FF8191D6
:1008E0002F01882309F4A5C1853239F423FD8591B0
:1008F00023FF81912F01853221F490E0B301B6D11D
:10090000E8CF982FFF24EE249924FFE1FF15D0F0C3
:100910009B3269F09C3228F4903259F0933291F472
:100920000EC09D3249F0903369F441E024C052E09A
:10093000F52A84E0F82A28C098E0F92A25C0E0E1E9
:10094000FE2A22C0F7FC29C0892F80538A3070F418
:10095000F6FE05C0989C902C1124980E15C0E89CBA
:10096000E02C1124E80EF0E2FF2A0EC09E3229F49A
:10097000F6FC5FC140E4F42A07C09C3619F450E845
:10098000F52A02C0983649F4F20123FD959123FF20
:1009900091912F01992309F0B8CF892F8554833085
:1009A00018F08052833038F444E050E0A40EB51EB5
:1009B0005FE359830FC0933631F0933779F0933565
:1009C00009F052C01FC0F5018081898342E050E0E8
:1009D000A40EB51E610101E010E011C0F501C08058
:1009E000D180F6FC03C06FEF7FEF02C0692D70E08D
:1009F00042E050E0A40EB51EC6012DD18C015FE788
:100A0000F52213C0F501C080D180F6FC03C06FEF62
:100A10007FEF02C0692D70E042E050E0A40EB51EE9
:100A2000C6010ED18C0150E8F52AF3FE06C018C0AD
:100A300080E290E0B3011AD1EA948E2D90E008177D
:100A40001907B0F30DC0F601F7FC8591F7FE81910F
:100A50006F0190E0B3010AD1E110EA940150104017
:100A60000115110581F7E2C0943611F0993661F550
:100A7000F7FE08C0F501208131814281538184E075
:100A800090E00AC0F501808191819C01442737FDE7
:100A90004095542F82E090E0A80EB91E9FE6F922FF
:100AA00057FF09C050954095309521953F4F4F4FC6
:100AB0005F4FE0E8FE2ACA01B901A1012AE030E057
:100AC00001D1D82ED2183FC0953729F41F2D1F7E93
:100AD0002AE030E01DC01F2D197F9F3661F090374E
:100AE00020F4983509F0A5C00FC0903739F0983739
:100AF00009F09FC004C028E030E00AC0106114FD76
:100B0000146020E130E004C014FD166020E132E002
:100B100017FF08C0F501608171818281938144E0F3
:100B200050E008C0F50180819181BC0180E090E037
:100B300042E050E0A40EB51EA101C4D0D82ED218B8
:100B40008FE7F82EF122F6FE0BC05EEFF522D914E6
:100B500038F4F4FE07C0F2FC05C08FEEF82202C0A4
:100B60001D2D01C0192DF4FE0DC0FE01ED0DF11D6E
:100B70008081803319F499EEF92208C01F5FF2FEDC
:100B800005C003C08F2D867809F01F5F0F2DF3FC81
:100B900013C0F0FE0EC01E1510F09D2C0AC09D2C37
:100BA0009E0C911A1E2D05C080E290E0B3015ED02C
:100BB0001F5F1E15C8F304C01E1510F4E11A01C012
:100BC000EE2404FF0EC080E390E0B3014FD002FF9B
:100BD0001BC001FD03C088E790E00EC088E590E0EF
:100BE0000BC0802F867881F001FF02C08BE201C02C
:100BF00080E2F7FC8DE290E0B30138D005C080E3DD
:100C000090E0B30133D09A94D914C8F3DA94F10187
:100C1000ED0DF11D808190E0B30128D0DD20B1F70A
:100C200005C080E290E0B30121D0EA94EE20C9F73C
:100C300050CEF30166817781CB012B96E2E1BCC0F7
:100C4000FC010590615070400110D8F78095909597
:100C50008E0F9F1F0895FC0161507040019001109C
:100C6000D8F7809590958E0F9F1F08950F931F932F
:100C7000CF93DF938C01EB018B8181FF1BC082FF3F
:100C80000DC02E813F818C819D812817390764F426
:100C9000E881F9810193F983E88306C0E885F98545
:100CA000802F0995892B31F48E819F8101969F8336
:100CB0008E8302C00FEF1FEFC801DF91CF911F910C
:100CC0000F910895FA01AA27283051F1203181F1BE
:100CD000E8946F936E7F6E5F7F4F8F4F9F4FAF4F44
:100CE000B1E03ED0B4E03CD0670F781F891F9A1F57
:100CF000A11D680F791F8A1F911DA11D6A0F711D0B
:100D0000811D911DA11D20D009F468943F912AE016
:100D1000269F11243019305D3193DEF6CF010895FE
:100D2000462F4770405D4193B3E00FD0C9F7F6CF2F
:100D3000462F4F70405D4A3318F0495D31FD4052F7
:100D4000419302D0A9F7EACFB4E0A695979587958D
:100D500077956795BA95C9F700976105710508956C
:100D60009B01AC010A2E0694579547953795279518
:100D7000BA95C9F7620F731F841F951FA01D0895B0
:100D80002F923F924F925F926F927F928F929F929B
:100D9000AF92BF92CF92DF92EF92FF920F931F9389
:100DA000CF93DF93CDB7DEB7CA1BDB0B0FB6F8943A
:100DB000DEBF0FBECDBF09942A88398848885F847A
:100DC0006E847D848C849B84AA84B984C884DF80EB
:100DD000EE80FD800C811B81AA81B981CE0FD11DCF
:100DE0000FB6F894DEBF0FBECDBFED010895F894A5
:020DF000FFCF33
:100DF2005A6F6E65256420483A25642F2564005495
:100E020061726765742048756D3A20256425250056
:100E120054696D653A2025647300466C6F773A20F9
:060E22002564487A00007F
:00000001FF
