:1000000016C030C02FC02EC02DC02CC02BC02AC09F
:1000100029C0D4C427C026C025C024C015C122C011
:1000200021C06364696E6F70737578585B0011242A
:100030001FBECFE5D2E0DEBFCDBF11E0A0E6B0E04D
:10004000EAEFFCE102C005900D92AE36B107D9F798
:1000500011E0AEE6B1E001C01D92AF3BB107E1F7A0
:1000600002D049CECDCFEF92FF920F931F93CF9343
:10007000DF9384B3877084BB85B3886F85BB8E980C
:10008000969A87B3877E87BB88B3886188BB87B31E
:10009000836087BB88B38C7F88BB8F9A9798309A90
:1000A000389885EA91E027D181EA91E0C9D744D216
:1000B000B4D446D689E381BF8BE083BF89B7816022
:1000C00089BF789485EA91E060916E0140916F015B
:1000D00079D280E690E0B5D3C4E1D0E08DE0E82E9F
:1000E000FF24F3948091700190917101892B09F0A4
:1000F00082C013B31095187F90B39095907480913F
:100100007201181729F480917301981709F473C0CC
:10011000D0937101C0937001109372019093730199
:100120009923C1F090E08091A401882309F491E023
:100130009093A401F0926D01992321F081EA91E05E
:1001400026D359C085EA91E060916E0140916F011C
:1001500039D251C0112309F44EC08091A401012F5E
:10016000882379F015FF04C081EA91E065E082D729
:1001700006FF04C081EA91E06BEF7CD7F0926D013D
:100180003AC013FF0AC080916E0190E00196817021
:10019000907080936E01F0926D0104FF0AC080910F
:1001A0006F0190E001968370907080936F01F092E0
:1001B0006D0105FF02C041E003C006FF0DC04FEF17
:1001C00080916E018E9DC00111248B559E4F6091D0
:1001D0006F0141D1F0926D0117FF0DC060916E016A
:1001E0006E9DC00111248B559E4F12D1F0926D016E
:1001F00080916E0166D385EA91E060E0A8D582EB3C
:1002000091E061E0A4D585EA91E05ED68091770126
:10021000882319F00DD41092770180916D01882305
:1002200009F460CF8091A401882321F081EA91E054
:10023000AED207C085EA91E060916E0140916F01F6
:10024000C1D110926D014ECF1F920F920FB60F9237
:1002500011242F933F934F935F936F937F938F93CB
:100260009F93AF93BF93EF93FF938091740190910D
:10027000750101969093750180937401885E934097
:10028000D0F0109275011092740181EA91E0DED6EF
:1002900085EA91E060E041EA51E062D082EB91E0D2
:1002A00061E041EA51E05CD08091A401882319F01B
:1002B00081E080936D018091700190917101892B93
:1002C00049F08091700190917101019790937101B3
:1002D00080937001FF91EF91BF91AF919F918F91AA
:1002E0007F916F915F914F913F912F910F900FBE32
:1002F0000F901F901895DC011C923CE311963C93E3
:1003000011978EE190E013969C938E931297159619
:100310001C921E92149717961C921E92169722E01A
:1003200018962C93189719961C9219971A961C9246
:100330001A971B961C921B971C961C921C97FD01EA
:100340003D961D961C92318393838283158214827D
:1003500017821682208711861286138614860895C6
:10036000FC01DA0180917601882309F050C0838571
:10037000882361F58485882349F59C9181859817A8
:1003800029F511969C91119782859817F9F4129688
:100390008C918823D9F481E08387228133818CE397
:1003A00090E0AC01249FC001259F900D349F900DDB
:1003B00011249583848328B381E090E0062E02C047
:1003C000880F991F0A94E2F7282B28BB838588237E
:1003D000F1F084858823D9F484819581009719F000
:1003E00001979583848384819581892B21F0908165
:1003F0008181981760F0138628B381E090E002C0F5
:10040000880F991F6A95E2F78095822388BB08952B
:10041000FC0190E08485882309F491E09487938718
:10042000992359F028B381E090E002C0880F991F0A
:100430006A95E2F7282B28BB089528B381E090E065
:1004400002C0880F991F6A95E2F78095822388BBC6
:10045000158214820895FC016130E1F1613058F198
:10046000623009F44BC0633009F057C091858CE3CA
:10047000989F900111248285280F311D85E0480244
:10048000C0011124280F391F02C020563A4F37FDF2
:10049000FCCF02C0205A354085E0203A3807D4F717
:1004A000C9016CE370E03AD66187C9016CE370E082
:1004B00035D68287089514162CF481818F3510F477
:1004C0008B5F06C047FF29C08181863030F185509F
:1004D0008183089514163CF48281938188379105B5
:1004E00010F4059608C047FF18C0828193818630BA
:1004F000910598F00597938382830895141634F438
:100500008085843118F48F5F8087089547FF05C088
:100510008085823010F081508087089595B39C7F4C
:1005200095BB8BBBAA9A81E08A95F1F7AA9883E3E1
:1005300097E00197F1F708958FEF8ABB84B3876046
:1005400084BB80E098E40197F1F788E3E7DF80E07F
:1005500092E10197F1F78CE0E1DF86E0DFDF81E0F7
:10056000DDDF83E397E00197F1F70895FC0121E0D7
:100570009DE30CC03196A89AA9988BBBAA9A822FAA
:100580008A95F1F7AA98892F8A95F1F780818823B7
:1005900089F708958295880F880F807C860F806880
:1005A000BDDF08950F931F938C0181E0B7DF8FE6C5
:1005B00090E0DCDF81E060E0EDDFC801D7DF1F9174
:1005C0000F910895BF92CF92DF92EF92FF920F9317
:1005D0001F93DF93CF93CDB7DEB760970FB6F89434
:1005E000DEBF0FBECDBF7C01062FB42E81E096DFAB
:1005F0008DE0089FC0011124E80EF91E8DB79EB74B
:100600000C970FB6F8949EBF0FBE8DBFEDB7FEB727
:1006100031966E010894C11CD11CADB7BEB71296BD
:10062000DC92CE92119786E790E09383828310E06C
:100630000F5F1F4F15830483D70119968C9119976B
:10064000868317821A968C911A97808711868C91CF
:10065000828713868DD58DB79EB70C960FB6F8940A
:100660009EBF0FBE8DBFC60181DF81E060E092DFDB
:1006700091E0B91609F442C0B91660F1A2E0BA16C9
:1006800009F454C0B3E0BB1609F06EC08DB79EB735
:1006900008970FB6F8949EBF0FBE8DBFEDB7FEB79B
:1006A0003196ADB7BEB71296DC92CE9211978CE818
:1006B00090E093838283D70119968C911997848354
:1006C00015821A968C918683178252D58DB79EB764
:1006D000089645C000D000D000D0EDB7FEB73196E7
:1006E000ADB7BEB71296DC92CE9211978DE990E02D
:1006F00093838283D70111968C912BC000D000D0B8
:1007000000D0EDB7FEB73196ADB7BEB71296DC920A
:10071000CE9211978EEA90E093838283D70112964E
:100720008D919C9113979583848315C000D000D040
:1007300000D0EDB7FEB73196ADB7BEB71296DC92DA
:10074000CE9211978CEB90E093838283D701189619
:100750008C91848315820CD58DB79EB706960FB603
:10076000F8949EBF0FBE8DBFCE010196FFDE60964E
:100770000FB6F894DEBF0FBECDBFCF91DF911F91B2
:100780000F91FF90EF90DF90CF90BF900895EF9280
:10079000FF920F931F93DF93CF93CDB7DEB7609790
:1007A0000FB6F894DEBF0FBECDBF7C0181E0B6DE90
:1007B000D70113968C91882319F08BEC90E002C03E
:1007C00085ED90E0D3DEEDB7FEB73A970FB6F8941B
:1007D000FEBF0FBEEDBF31968E010F5F1F4FADB74D
:1007E000BEB712961C930E9311978BED90E09383F6
:1007F0008283D7018C918483158211968C911197F5
:100800008683178212968C9180871186B1D4EDB7BA
:10081000FEB73A960FB6F894FEBF0FBEEDBF80E06C
:1008200066E0B8DEC801A2DE60960FB6F894DEBFBF
:100830000FBECDBFCF91DF911F910F91FF90EF9031
:100840000895FC0104C05D9BFECF31968CB9808178
:100850008823C9F75D9BFECF8DE08CB95D9BFECFF1
:100860008AE08CB90895DF93CF9300D000D0CDB744
:10087000DEB7382F20E0AE014F5F5F4FFA01E20F85
:10088000F11D832F6AE02AD4905D90832F5F832F20
:1008900025D4382F882391F709C02150FC01E20F9D
:1008A000F11DE0815D9BFECFECB902C0CE01019647
:1008B000222399F70F900F900F900F90CF91DF9117
:1008C0000895FF920F931F93582F4FB7F894282F36
:1008D00030E08DE090E0289FF001299FF00D389FD7
:1008E000F00D1124EB55FE4F10810085F3844FBFAE
:1008F0005D9BFECF8AE58CB95D9BFECF8FE68CB900
:100900005D9BFECF8EE68CB95D9BFECF85E68CB9F4
:10091000852F8F5FA8DF5D9BFECF8AE38CB95D9B3F
:10092000FECF80E28CB95D9BFECF88E48CB95D9BE5
:10093000FECF8DE38CB9812F96DF5D9BFECF8AEED3
:1009400090E08CB95D9BFECF80E28CB95D9BFECFC1
:1009500086E48CB95D9BFECF8DE38CB9802F83DF5D
:100960005D9BFECF80E28CB95D9BFECF8CE48CB9A1
:100970005D9BFECF8FE28CB95D9BFECF8CEE90E04D
:100980008CB95D9BFECF89E68CB95D9BFECF8EE670
:100990008CB95D9BFECF80E28CB95D9BFECF81E47C
:1009A0008CB95D9BFECF8DE38CB98F2D5CDF8EEE15
:1009B00090E047DF1F910F91FF9008951F920F92D3
:1009C0000FB60F9211248F939F93EF93FF939CB1D7
:1009D0009A3061F4E0917801F0E0E758FE4F108220
:1009E00081E080937701109278010EC09D3061F014
:1009F000809178018D3140F4E82FF0E0E758FE4F08
:100A000090838F5F80937801FF91EF919F918F91F9
:100A10000F900FBE0F901F90189510BC85E089B9FC
:100A200088E98AB986E880BD8FEE90E00ADF0895F4
:100A3000EF92FF920F931F93DF93CF93CDB7DEB763
:100A400060970FB6F894DEBF0FBECDBF09E711E087
:100A5000C80167EF70E075D3009751F48DEF90E017
:100A6000F0DE80E02EDF81E02CDF88E091E05AC1EB
:100A70002DB73EB72A5030400FB6F8943EBF0FBE98
:100A80002DBFEDB7FEB73196ADB7BEB712961C932A
:100A90000E93119782E191E093838283CE010196B8
:100AA00095838483CE01029697838683CE01039635
:100AB000918780877ED32DB73EB7265F3F4F0FB615
:100AC000F8943EBF0FBE2DBF039781F46981683152
:100AD00068F44A814C3350F42B812C3338F41FB71F
:100AE000F89481EA91E0EFD21FBF17C18DB79EB78E
:100AF00008970FB6F8949EBF0FBE8DBFEDB7FEB737
:100B0000319689E791E0ADB7BEB712969C938E936C
:100B1000119784E291E093838283CE0104969583BA
:100B2000848387E0E82EF12CEC0EFD1EF782E6822E
:100B300040D32DB73EB7285F3F4F0FB6F8943EBF66
:100B40000FBE2DBF029709F0EBC02C81222309F4C0
:100B5000E7C0233008F0E4C0122F11501C830FB7F8
:100B6000C70162E371E0EDD2009701F5F894412FDF
:100B700050E08DE090E0489FF001499FF00D589FB4
:100B8000F00D1124EB55FE4F81E08487838728B355
:100B900081E090E0012E02C0880F991F0A94E2F7CD
:100BA000282B28BB0FBF85E391E0BCC0C70168E3D9
:100BB00071E0C7D2009711F5F894212F30E08DE055
:100BC00090E0289FF001299FF00D389FF00D11242F
:100BD000EB55FE4F148613861582148248B381E0CC
:100BE00090E0012E02C0880F991F0A94E2F78095C9
:100BF000842388BB0FBF8CE391E094C0C70160E4FD
:100C000071E045E050E0A6D20097D9F500D000D0C1
:100C100000D0EDB7FEB73196CE010C96ADB7BEB79A
:100C200012969C938E93119786E491E0938382832E
:100C3000CE01059695838483BCD22DB73EB72A5F3B
:100C40003F4F0FB6F8943EBF0FBE2DBF019709F07E
:100C500067C05D81552309F463C0553108F060C059
:100C60004FB7F8948C8190E02DE030E0829FF00146
:100C7000839FF00D929FF00D1124EB55FE4F50878E
:100C80004BC0C70169E471E046E050E063D20097D1
:100C900009F046C08DB79EB708970FB6F8949EBF6F
:100CA0000FBE8DBFEDB7FEB73196CE010D96ADB735
:100CB000BEB712969C938E93119780E591E0938333
:100CC0008283CE01059695838483CE010696978311
:100CD00086836FD22DB73EB7285F3F4F0FB6F8948B
:100CE0003EBF0FBE2DBF0297D9F46D816831C0F4AD
:100CF0005E815C33A8F44FB7F8948C8190E02DE0CE
:100D000030E0829FF001839FF00D929FF00D11243F
:100D1000EB55FE4F618752874FBF81E291E002C0E1
:100D200086E591E08EDD60960FB6F894DEBF0FBECB
:100D3000CDBFCF91DF911F910F91FF90EF9008955C
:100D400081B3877E81BB82B3886182BB0895CF93D4
:100D5000DF93EC01E62F8091990190919A0127E0B1
:100D6000803D920730F4019690939A018093990107
:100D700095C010929A0110929901662311F423E014
:100D800001C024E081E090E0382F01C0330F2A95A4
:100D9000EAF7232F10929B0110929C0110929D0163
:100DA00010929E0110929F0181B3832B81BB82B36D
:100DB000932F9095892382BBA0E0B8E41197F1F7B7
:100DC00082B3832B82BB81B3982391BB81E38A9545
:100DD000F1F780B3832309F04BC092E6892F8A95FF
:100DE000F1F780B3832309F443C0892F8A95F1F783
:100DF00030E041E054E207C0842F8A95F1F79F5F0D
:100E0000953611F435C090E080B38223A9F790E0C5
:100E100006C0842F8A95F1F79F5F953649F180B31C
:100E20008223B9F3852F8A95F1F7832F86958695CE
:100E30008695A82FB0E0A556BE4F9C91990F9C9324
:100E400080B3822311F091609C933F5F3832D9F6D2
:100E500030919C0120919B01832F820F90919D01E5
:100E6000890F90919E01890F90919F01891751F0F0
:100E7000F0E0E956FE4F80818F5F8083833070F011
:100E800018820CC0922F80E0830F911D6AE070E001
:100E900031D16883F0E0E956FE4F1082DF91CF91A7
:100EA000089520E030E043EB52E0389ACA01019700
:100EB000F1F73898CA010197F1F72F5F3F4F85E0AE
:100EC0002C3D380791F708956F927F928F929F92F1
:100ED000AF92BF92CF92DF92EF92FF920F931F9348
:100EE000DF93CF93CDB7DEB760970FB6F894DEBF30
:100EF0000FBECDBF26B330E073E0369527957A95C7
:100F0000E1F741E050E0242735276624639462220C
:100F100026B330E064E0369527956A95E1F72427FB
:100F200035277724739472227C0100E010E091E071
:100F3000C92ED12C5E010894A11CB11C8CE5882E11
:100F400081E0982E002311F4962D01C0972DD70132
:100F50001B968C91882309F443C02091A00199230A
:100F6000B1F1822F90E0002E02C0959587950A94EA
:100F7000E2F780FD46C0C601002E02C0880F991F0F
:100F80000A94E2F7282B2093A001979A8ADF00D0D9
:100F900000D000D0EDB7FEB73196ADB7BEB7129610
:100FA000BC92AE921197938282820F5F1F4F15837E
:100FB000048301501040DCD0EDB7FEB736960FB673
:100FC000F894FEBF0FBEEDBFC501ECDA1AC0C60132
:100FD000002E02C0880F991F0A94E2F780950AC07C
:100FE000C601002E02C0880F991F0A94E2F780956F
:100FF0002091A00182238093A001882311F4979867
:1010000038980F5F1F4F8DE090E0E80EF91E023018
:10101000110509F097CF60960FB6F894DEBF0FBEAA
:10102000CDBFCF91DF911F910F91FF90EF90DF9097
:10103000CF90BF90AF909F908F907F906F900895CA
:10104000FC0110821182128213820895FC018281B8
:101050008F5F82838C3368F0128281818F5F8183FE
:101060008C3338F0118280818F5F8083883108F063
:1010700010820895FC018381882321F190818CE303
:10108000989F900111248181280F311D862F992767
:1010900087FD9095280F391F02C020563A4F37FD23
:1010A000FCCF02C0205A354085E0203A3807D4F7FB
:1010B000C9016CE370E032D06083C9016CE370E079
:1010C0002DD081830895FC01683138F44C3328F425
:1010D0002C3318F46083418322830895991B79E0AF
:1010E00004C0991F961708F0961B881F7A95C9F7B8
:1010F00080950895AA1BBB1B51E107C0AA1FBB1F07
:10110000A617B70710F0A61BB70B881F991F5A9593
:10111000A9F780959095BC01CD01089597FB092E04
:1011200007260AD077FD04D0E5DF06D000201AF4A8
:10113000709561957F4F0895F6F7909581959F4F33
:101140000895FB01DC018D91019080190110D9F304
:10115000990B0895FB01DC014150504030F08D9116
:101160000190801919F40020B9F7881B990B089594
:10117000AEE0B0E0EDEBF8E095C50D891E8986E0A4
:101180008C831A8309838FEF9FE79E838D839E0153
:10119000275E3F4FCE0101966F89788DA90120D03F
:1011A0002F813885020F131FF80110822E96E4E07C
:1011B00095C5AEE0B0E0EEEDF8E076C585E08C8355
:1011C0008B899C899A8389839E01295E3F4FCE013A
:1011D00001966D897E89A90144D32E96E2E080C5EF
:1011E000ABE0B0E0E5EFF8E04FC53C012B015A0160
:1011F000FC0117821682838181FD03C06FEF7FEFB0
:10120000B9C19AE0892E1E010894211C311CF301FA
:101210002381F20123FD859123FF81912F018823F2
:1012200009F4A5C1853239F423FD859123FF81910D
:101230002F01853221F490E0B3017FD4E8CF982FBD
:10124000FF24EE249924FFE1FF15D0F09B3269F0D2
:101250009C3228F4903259F0933291F40EC09D32B2
:1012600049F0903369F441E024C052E0F52A84E06B
:10127000F82A28C098E0F92A25C0E0E1FE2A22C019
:10128000F7FC29C0892F80538A3070F4F6FE05C020
:10129000989C902C1124980E15C0E89CE02C1124E9
:1012A000E80EF0E2FF2A0EC09E3229F4F6FC5FC180
:1012B00040E4F42A07C09C3619F450E8F52A02C02D
:1012C000983649F4F20123FD959123FF91912F0166
:1012D000992309F0B8CF892F8554833018F08052B4
:1012E000833038F444E050E0A40EB51E5FE3598328
:1012F0000FC0933631F0933779F0933509F052C02F
:101300001FC0F5018081898342E050E0A40EB51E24
:10131000610101E010E011C0F501C080D180F6FC50
:1013200003C06FEF7FEF02C0692D70E042E050E034
:10133000A40EB51EC601B4D38C015FE7F52213C01D
:10134000F501C080D180F6FC03C06FEF7FEF02C0D3
:10135000692D70E042E050E0A40EB51EC60195D3A1
:101360008C0150E8F52AF3FE06C018C080E290E038
:10137000B301E3D3EA948E2D90E008171907B0F378
:101380000DC0F601F7FC8591F7FE81916F0190E0A9
:10139000B301D3D3E110EA940150104001151105B7
:1013A00081F7E2C0943611F0993661F5F7FE08C076
:1013B000F501208131814281538184E090E00AC0AF
:1013C000F501808191819C01442737FD4095542F80
:1013D00082E090E0A80EB91E9FE6F92257FF09C0EF
:1013E00050954095309521953F4F4F4F5F4FE0E826
:1013F000FE2ACA01B901A1012AE030E0E4D3D82EC7
:10140000D2183FC0953729F41F2D1F7E2AE030E007
:101410001DC01F2D197F9F3661F0903720F498353D
:1014200009F0A5C00FC0903739F0983709F09FC078
:1014300004C028E030E00AC0106114FD146020E10F
:1014400030E004C014FD166020E132E017FF08C050
:10145000F501608171818281938144E050E008C090
:10146000F50180819181BC0180E090E042E050E094
:10147000A40EB51EA101A7D3D82ED2188FE7F82E3F
:10148000F122F6FE0BC05EEFF522D91438F4F4FE1B
:1014900007C0F2FC05C08FEEF82202C01D2D01C06E
:1014A000192DF4FE0DC0FE01ED0DF11D808180337C
:1014B00019F499EEF92208C01F5FF2FE05C003C0BF
:1014C0008F2D867809F01F5F0F2DF3FC13C0F0FEFF
:1014D0000EC01E1510F09D2C0AC09D2C9E0C911A5A
:1014E0001E2D05C080E290E0B30127D31F5F1E15BB
:1014F000C8F304C01E1510F4E11A01C0EE2404FF65
:101500000EC080E390E0B30118D302FF1BC001FDC1
:1015100003C088E790E00EC088E590E00BC0802F04
:10152000867881F001FF02C08BE201C080E2F7FC07
:101530008DE290E0B30101D305C080E390E0B301F8
:10154000FCD29A94D914C8F3DA94F101ED0DF11D8F
:10155000808190E0B301F1D2DD20B1F705C080E2D7
:1015600090E0B301EAD2EA94EE20C9F750CEF3013D
:1015700066817781CB012B96E2E1A2C3FC0120FDBD
:1015800008C023FD05C022FF02C07383628351831C
:1015900040830895EF92FF920F931F9344FF02C080
:1015A00033E011C046FF02C034E00DC0DB01FC0196
:1015B000AA0FBB1FEE1FFF1F1094D1F76A0F7B1FEE
:1015C0008E1F9F1F31E0660F771F881F991F3150B4
:1015D000D1F77B018C01E20EF11C011D111DA80148
:1015E0009701B701CA011F910F91FF90EF900895E5
:1015F0000F931F93CF93DF938C01C8015CD2EC0152
:1016000097FD06C02FD2892BC1F7CE01B801C1D2F8
:10161000CE01DF91CF911F910F910895A0E0B0E02E
:10162000E3E1FBE039C3EC01C62E5A01122F43D28D
:10163000AC018B3219F08D3249F41068CA9409F468
:1016400066C0CE0138D2AC0197FD61C06DEFD62ED9
:10165000D1228D2D8073F1F44033E1F4CA9409F462
:1016600042C0CE0128D2AC0197FD3DC082E0D82A0D
:10167000483711F0483551F480E4D82ACA9499F1DA
:10168000CE0119D2AC0199232CF42DC0D6FC02C096
:1016900080E1D82AEE24FF248701242F205328300C
:1016A00080F0D4FC09C02A3060F0D6FE05C02F7D42
:1016B000822F8151863020F0CA01BE016AD210C04B
:1016C0002750C801B7014D2D65DF7B018C0182E0F9
:1016D000D82ACA9459F0CE01EED1AC0197FFDDCFE4
:1016E000D1FC04C014C0EE24FF248701D7FE08C03B
:1016F00010950095F094E094E11CF11C011D111D62
:10170000C501B801A7012D2D39DF81E001C080E0BE
:10171000CDB7DEB7EAE0DCC2A0E2B0E0E1E9FBE091
:10172000B7C26C01A62E8A017901FE01319680E2D2
:10173000DF011D928A95E9F770E030E060E040E05B
:1017400050E04F01A1E0B0E0F6018381F70183FD95
:10175000259183FF21917F01222309F47CC02E353E
:1017600019F44115510569F1872F90E08417950709
:1017700044F42D3551F12D3221F4332329F431E095
:1017800021C0332309F4622F322F832F869586954B
:101790008695F401E80FF11D832F87703D0102C08B
:1017A000660C771C8A95E2F720812629208336175C
:1017B00011F430E007C0361710F43F5FE6CF315028
:1017C000E4CF71E04F5F5F4FBFCF332319F08E81BD
:1017D00080628E83772359F0FE0131969E012F5D42
:1017E0003F4F808180958193E217F307D1F7BB24A7
:1017F000B3944E010894811C911CC6015CD1AC01CC
:1018000097FD21C0869586958695F401E80FF11D18
:10181000808190E09A012770307002C0959587957D
:101820002A95E2F780FD04C0CA01B601B2D10BC00F
:101830000115110519F0D8014D938D01AA94BB240F
:10184000AA20D9F602C0BB2031F40115110529F0F8
:10185000F801108202C0EE24FF24C701A096EEE03A
:1018600033C2A0E0B0E0E6E3FCE012C25C016B0131
:101870003A01FC01178216828824DCC0812F90E097
:10188000F1D0892B19F0C501B3DED4C0153249F46B
:10189000F601F3FC6591F3FE61916F01653259F435
:1018A00015E2C50108D197FDD1C0181709F4C2C0CF
:1018B000B5016FD1D0C06A3219F0162F00E006C012
:1018C000F3FC1591F3FE11916F0101E099240EC014
:1018D0000260692D70E080E090E040E25BDE962ED1
:1018E000F601F3FC1591F3FE11916F01212F2053A6
:1018F0002A3070F301FD03C099249A9403C0992003
:1019000009F4A9C0183621F01C3699F4F6010BC071
:10191000F601F3FC6591F3FE6191683619F06F01F1
:10192000162F07C008600460F3FC1591F3FE1191B7
:101930006F01112309F48FC082E290E0612F70E003
:1019400099D0892B09F487C0802F00FF03C0EE24B3
:10195000FF2407C0F301E080F18022E030E0620E56
:10196000731E1E3649F4F5014681578160E070E030
:10197000C701202F03DE5EC0133689F481FD02C04B
:1019800099249394C50197D097FD60C0E114F104A8
:1019900019F0F70181937F019A94A1F749C01B3593
:1019A00051F4C501692DA7019601B6DE6C010097BF
:1019B00009F03EC038C0C5011BDE97FD47C01F3689
:1019C00041F1103728F4143611F1193621F524C0ED
:1019D000133719F01537F9F41AC0C5016CD0EC01B2
:1019E00097FD0FC03FD0892B21F0CE01B501D1D09A
:1019F00008C0E114F10419F0F701C1937F019A9432
:101A000061F7E114F104A1F0F701108211C0006246
:101A100003C0006101C00064C501692DA701202F2A
:101A2000FDDD882329F4F5018381807379F413C0E7
:101A300000FF8394F501F380F601F3FC1591F3FEAA
:101A400011916F01112309F019CF05C0882019F4F5
:101A50002FEF3FEF02C0282D30E0C901CDB7DEB730
:101A6000EEE032C191110DC1803219F089508550DC
:101A7000D0F70895FC010590061621F00020D9F753
:101A8000C00108953197CF010895FC010590615080
:101A900070400110D8F7809590958E0F9F1F089584
:101AA000FC016150704001900110D8F7809590952D
:101AB0008E0F9F1F0895CF93DF93EC014B8140FF62
:101AC0001AC046FF0AC04F7B4B838E819F810196CF
:101AD0009F838E838A81282F2BC042FF13C0E88109
:101AE000F9818081282F332727FD30952115310575
:101AF00029F440624B832FEF3FEF1BC03196F983EF
:101B0000E88311C0EA85FB85CE0109959C0197FF0A
:101B10000AC09B812F5F3F4F11F080E201C080E13E
:101B2000892B8B83E8CF8E819F8101969F838E8343
:101B300030E0C901DF91CF9108950F931F93CF93A8
:101B4000DF938C01EB018B8181FF1BC082FF0DC0F5
:101B50002E813F818C819D812817390764F4E881AB
:101B6000F9810193F983E88306C0E885F985802F20
:101B70000995892B31F48E819F8101969F838E83F5
:101B800002C00FEF1FEFC801DF91CF911F910F919E
:101B900008959C01FB01838180FF11C086FD0FC069
:101BA0009FEF2F3F390759F0228380648F7D838315
:101BB0008681978101979783868330E002C02FEF5B
:101BC0003FEFC9010895FA01AA27283051F12031C9
:101BD00081F1E8946F936E7F6E5F7F4F8F4F9F4FC1
:101BE000AF4FB1E03ED0B4E03CD0670F781F891F03
:101BF0009A1FA11D680F791F8A1F911DA11D6A0FD1
:101C0000711D811D911DA11D20D009F468943F9183
:101C10002AE0269F11243019305D3193DEF6CF0182
:101C20000895462F4770405D4193B3E00FD0C9F748
:101C3000F6CF462F4F70405D4A3318F0495D31FDB5
:101C40004052419302D0A9F7EACFB4E0A695979508
:101C5000879577956795BA95C9F7009761057105DE
:101C600008959B01AC010A2E069457954795379528
:101C70002795BA95C9F7620F731F841F951FA01D82
:101C800008959927882708952F923F924F925F9247
:101C90006F927F928F929F92AF92BF92CF92DF927C
:101CA000EF92FF920F931F93CF93DF93CDB7DEB7E1
:101CB000CA1BDB0B0FB6F894DEBF0FBECDBF099475
:101CC0002A88398848885F846E847D848C849B84CC
:101CD000AA84B984C884DF80EE80FD800C811B81DA
:101CE000AA81B981CE0FD11D0FB6F894DEBF0FBE09
:0A1CF000CDBFED010895F894FFCF79
:101CFA0053797374656D20737461727465640045F9
:101D0A0072726F723A005A6F6E65256420253032FE
:101D1A00643A253032642F25642525005374617294
:101D2A00743A20253032643A2530326400546172A4
:101D3A006765742048756D3A202564252500447529
:101D4A00726174696F6E3A2025646D00466C6F7714
:101D5A003A202564204C2F6D696E00536574205417
:101D6A00696D653A0054696D653A00253032643A06
:101D7A00253032643A253032640025006D00005562
:101D8A00415254204F4B00646174613B002D2D2D4C
:101D9A00446174612D2D2D002D2D2D456E642D2D40
:101DAA002D0074696D653A25643A25643A25643BC9
:101DBA00004F4B007A6F6E6525643A255B5E3B5D8A
:101DCA003B006F6E004F4E006F6666004F4646003E
:101DDA00666C6F773A0025640073746172743A0016
:101DEA0025643A2564004552524F52004C65616B96
:0E1DFA0020696E205A6F6E652025642100015D
:00000001FF
